:020000040800F2
:10300000C032002099310008E5500008F94C000852
:10301000114E0008CD3A00081B69000800000000AE
:103020000000000000000000000000000131000866
:103030001D4200080000000045310008B15800089A
:10304000B3310008B3310008B3310008B3310008D0
:10305000B3310008B3310008B3310008B3310008C0
:10306000B3310008B3310008B3310008B3310008B0
:10307000B3310008B3310008B3310008B3310008A0
:10308000B3310008B3310008B3310008B331000890
:10309000055E0008B3310008B3310008B331000801
:1030A000B3310008B3310008B3310008B331000870
:1030B00021590008B9590008B3310008B33100089C
:1030C000B3310008B3310008B3310008B331000850
:1030D000B3310008C15B0008E55B0008255C00080F
:1030E000B3310008B3310008B3310008DFF80CD069
:1030F00000F098FB0048004701700008C032002033
:10310000224B19680868B0E8F00F80F30988BFF314
:103110006F8F4FF0000080F311884EF00D0E704756
:103120000000000006480068006880F3088862B666
:1031300061B6BFF34F8FBFF36F8F00DF00BF00BFDB
:1031400008ED00E0EFF30980BFF36F8F0F4B1A68B3
:1031500020E9F00F106008B54FF0500080F311889F
:10316000BFF34F8FBFF36F8F05F064FB4FF000008C
:1031700080F31188BDE8084019680868B0E8F00FCE
:1031800080F30988BFF36F8F704700BFDC01002018
:10319000EFF3058070470000064880470648004767
:1031A000FEE7FEE7FEE7FEE7FEE7FEE7FEE7FEE7F7
:1031B000FEE7FEE7C1580008ED30000840EA0103D1
:1031C0009B0703D009E008C9121F08C0042AFAD2DD
:1031D00003E011F8013B00F8013B521EF9D27047A1
:1031E000D2B201E000F8012B491EFBD27047002249
:1031F000F6E710B513460A4604461946FFF7F0FFF6
:10320000204610BD80EA010210B502F000434000E4
:1032100022D04A001FD0010E01EB1261C0F356000C
:10322000C2F3560240F4000042F40002A0FB022068
:1032300000047F39140400D0401C50EA124001D42D
:103240004000491EC2B20C0604EBD010401C4008DE
:10325000802A02D003E0002010BD20F001000029E8
:1032600000DA0020184310BD2DE9FE4F804681EAA8
:103270000300C00F0C46009021F0004123F00045F0
:10328000B8EB0200A94105D24046214690461C46B3
:103290000B46024623F00040104347D0270DC7F3EA
:1032A0000A00C3F30A510290401A019040286BDAD9
:1032B000C3F3130040F4801B0098924620B1002312
:1032C000D2EB030A63EB0B0B01985946C0F14002A5
:1032D000504600F018FA06460D4650465946019AE7
:1032E00000F030FA10EB08006141002487EA115227
:1032F00084EAE7731A4340D0009A62B3019A012A24
:103300004FEA075215DC001B61EB02014FF000424F
:1033100002EA0752CDE90042001C41F58011324615
:103320002B4600F030FA03B0BDE8F08F404621464E
:10333000F9E7001B61EB0201001C41F58013001846
:103340005B412018A2F5001747EB030140EAD57056
:10335000B6196D4111E06D084FEA360645EAC075B1
:103360004FEA0752001B61EB0201001C41F580117E
:1033700049084FEA30000019514132462B4603B04C
:10338000BDE8F04F00F0F0B90098012240000023A2
:10339000D0EB020263EBE073009821464FEAE07441
:1033A000B8EB000061EB0401E9E783F000435BE761
:1033B00081F0004158E72DE9FE4F81EA030404F053
:1033C000004421F0004100944FF0000B23F0004333
:1033D00050EA01045ED052EA03045BD0C3F30A54FE
:1033E000C1F30A552C44A4F2F3340194A0FB025417
:1033F000C1F3130141F48011C3F3130343F48013A9
:1034000001FB024400FB034E840A970A44EA8154FC
:1034100047EA8357A4FB076802958D0A05FB0785D9
:103420004FEA932C04FB0C542705029D4FEA0658E3
:1034300047EA1637B5EB08056EEB070C870E920EC0
:1034400047EA811742EA8312A7FB0201B6EB0B01A0
:1034500064EB00042B0D43EA0C335E1844EB1C5064
:10346000DA465146E7FB0201C5F313044FEA0B337A
:1034700043EA14534FEA0432019C43EA0603A4F1E1
:103480000C040294009CCDE900B400F07CF903B078
:10349000BDE8F08F00200146F9E72DE9F04D81EA03
:1034A000030404F0004B21F0004514464FF0000ADD
:1034B00023F0004150EA050220D054EA01021DD059
:1034C000C5F30A570246C5F31303C1F31300C1F352
:1034D0000A5640F4801543F48013A7EB0608101B2E
:1034E000D64608F2FD3873EB050002D308F1010857
:1034F00001E092185B41B8F1000F03DA00200146A9
:10350000BDE8F08D00204FF48011064684460EE0A1
:10351000171B73EB050705D3121B63EB050306436B
:103520004CEA010C49084FEA300092185B4150EA1E
:103530000107EDD152EA030012D082EA040083EAC7
:103540000501084305D0101BAB4106D20122002320
:1035500006E000224FF0004302E06FF0010253103A
:103560001AEB06004CEB085110EB0A0041EB0B0183
:10357000BDE8F04D00F0F8B80EB5C10F80EAE0707C
:103580000844CA07002140F233438DE80E000A4682
:103590000B4600F0F8F803B000BD0EB540F2334121
:1035A00002910021CDE900110A460B4600F0EBF82C
:1035B00003B000BD20F00040C10DC0F3160040F480
:1035C00000007F2901DA00207047962903DCC1F151
:1035D0009601C840704796398840704770B5C1F36E
:1035E0000A5201F000450024C1F3130140F2FF33F9
:1035F00041F480119A4201DA002070BD40F2334359
:103600009A42A2F2334203DC524200F08BF800E00F
:1036100090402C43F1D0404270BDC1F30A5210B526
:10362000C1F3130140F2FF3341F480119A4201DAF1
:10363000002010BD40F233439A42A2F2334203DC31
:10364000524200F06FF810BD904010BD00F00042F3
:1036500030F000400AD0C10D01F56071C0F31600D2
:1036600042EA0151C2084007114370470020014659
:103670007047000030B5041E71F1000404DB4FF008
:103680000044404264EB0101141E73F1000405DBA9
:103690001C464FF00043524263EB0403994208BFBB
:1036A000904230BD2DE9F05F0546002092469B46D2
:1036B00088460646814640241BE028464146474648
:1036C000224600F02FF853465A46C01A914110D3B3
:1036D00011461846224600F016F82D1A67EB01082D
:1036E0004F4622460120002100F00DF817EB00099B
:1036F0004E41201EA4F10104DFDC484631462A4633
:103700004346BDE8F09F202A04DB203A00FA02F18C
:10371000002070479140C2F1200320FA03F31943BF
:1037200090407047202A04DB203A21FA02F0002161
:10373000704721FA02F3D040C2F1200291400843C1
:1037400019467047202A06DBCB17203A41FA02F0CF
:1037500043EAE07306E041FA02F3D040C2F12002EE
:10376000914008431946704710B5141E73F10004C8
:1037700008DA401C41F1000192185B411A4301D163
:1037800020F0010010BD2DE9F04D92469B4611B18D
:10379000B1FA81F202E0B0FA80F220329046FFF7EF
:1037A000B2FF04460F4640EA0A0041EA0B015346C5
:1037B0005A46084313D0114653EA010019D0C8F104
:1037C00040025046FFF7AEFF05460E4650465946AA
:1037D0004246FFF798FF084305D0012004E0204649
:1037E0003946BDE8F08D0020054346EAE0762C43DB
:1037F00037430A986305E40AA0EB08000022FD0A9B
:1038000044EA47540A3002D500200146E9E70105A1
:1038100010196941DDE9084500196941BDE8F04D1D
:10382000A2E70000064C074D06E0E06840F0010307
:1038300094E8070098471034AC42F6D3FFF75AFCDF
:10384000489C0008689C000870B58C1810F8015B53
:1038500015F0070301D110F8013B2A1106D110F829
:10386000012B03E010F8016B01F8016B5B1EF9D12D
:103870002B0705D40023521E0DD401F8013BFAE7B3
:1038800010F8013BCB1A921C03E013F8015B01F81E
:10389000015B521EF9D5A142D8D3002070BD21B1E1
:1038A000826842F00102826003E0826822F0010235
:1038B0008260704721B1826842F48072826003E0C6
:1038C000826822F4807282607047000010B504465E
:1038D0001248844208D10121401501F00FFD00215A
:1038E000601501F00BFD17E00D48844208D101215D
:1038F000001501F003FD0021201501F0FFFC0BE095
:103900000848844208D10121C80301F0F7FC0021D6
:103910004FF4004001F0F2FC10BD00000024014013
:1039200000280140003C0140014600208A6802F066
:1039300004020AB1012000E0002070470146002087
:103940008A6802F008020AB1012000E000207047F6
:1039500030B502460020002350680F4C20400D79FE
:103960000C6844EA05242043506090680B4C2040CA
:10397000D1E902542C434D7944EA45042043906038
:10398000D06A20F470000C7C641EE4B2234340EA49
:103990000350D06230BD0000FFFEF0FFFDF7F1FFE5
:1039A000F0B504460D4600200021092D11DDE06828
:1039B000A5F10A0606EB4607072606FA07F1884333
:1039C000A5F10A0606EB460603FA06F10843E06095
:1039D0000CE0206905EB4507072606FA07F1884346
:1039E00005EB450603FA06F108432061072A0FDAC2
:1039F000606B561E06EB86071F2606FA07F1884302
:103A0000561E06EB860605FA06F10843606322E0BF
:103A10000D2A0FDA206BD61F06EB86071F2606FA43
:103A200007F18843D61F06EB860605FA06F1084320
:103A3000206310E0E06AA2F10D0606EB86071F2660
:103A400006FA07F18843A2F10D0606EB860605FA91
:103A500006F10843E062F0BD816841F00801816031
:103A6000704721B1826842F4A002826003E082685C
:103A700022F4A00282607047816841F004018160F5
:103A8000704710B501F04AFC00F010F802F03CFD60
:103A900002F02DF800F042FA02F08AF803F04AFA38
:103AA00040F2E241042001F035F910BD10B501F0FB
:103AB0007FF900F0CDFB00F0B3FB00F0F9FB01F063
:103AC00095F901F0F5FD01F0ADFE10BD00BFFEE778
:103AD00010B504460B48844209D10121480601F083
:103AE000EDFB00214FF0007001F0E8FB08E0012140
:103AF000880601F0E3FB00214FF0806001F0DEFB5F
:103B000010BD00000064004010B50021837A01223E
:103B100002FA03F13D4A126842F001023B4B1A607F
:103B20003A4A1C3212688A43384B1C331A60027BB3
:103B3000CAB9364A0C3212688A43344B0C331A60C5
:103B40004288C38842EA0343304A4032847A42F8CA
:103B500034300288838842EA03432C4A4032847A14
:103B600002EBC4025360027B012A19D1274A0C32AE
:103B700012680A43254B0C331A604288038842EAD4
:103B80000343224A4032847A42F83430C288838820
:103B900042EA03431D4A4032847A02EBC402536076
:103BA000C27A3AB9194A121D12688A43174B1B1D73
:103BB0001A6006E0154A121D12680A43134B1B1DBA
:103BC0001A60028932B9114A143212688A430F4BC3
:103BD00014331A600289012A06D10C4A1432126881
:103BE0000A430A4B14331A60427B012A06D1074A62
:103BF0001C3212680A43054B1C331A60034A1268D0
:103C000022F00102014B1A6010BD00000066004066
:103C10001AB143690B43436102E043698B4343613B
:103C2000704730B5024600200023146824F00204D7
:103C30001460146844F00104146000E05B1C5468D4
:103C400004F001041CB94FF6FF74A342F6D1546886
:103C500004F001040CB900206CE08C79012C04D133
:103C6000146844F08004146003E0146824F08004B5
:103C70001460CC79012C04D1146844F04004146021
:103C800003E0146824F0400414600C7A012C04D181
:103C9000146844F02004146003E0146824F0200445
:103CA00014604C7A012C04D1146844F010041460A0
:103CB00003E0146824F0100414608C7A012C04D101
:103CC000146844F00804146003E0146824F0080445
:103CD0001460CC7A012C04D1146844F004041460FC
:103CE00003E0146824F0040414608C78A407CD78F1
:103CF00044EA05640D7944EA05444D7944EA0554E3
:103D00000D886D1E2C43D461146824F001041460E6
:103D1000002300E05B1C546804F001041CB14FF662
:103D2000FF74A342F6D1546804F001040CB10020E2
:103D300000E0012030BD10B500F5D87303EB01138E
:103D40001B6803F004031372137A53B900F5D87398
:103D500003EB01131B6840F2FF7404EA5353136032
:103D600009E000F5D87303EB01131B686FF06044A2
:103D700004EAD303536000F5D87303EB01131B6807
:103D800003F00203537200F5D87303EB01135B6871
:103D900003F00F03937200F5D87303EB01135B6814
:103DA0001B0AD37400F5D87303EB01139B68D3721D
:103DB00000F5D87303EB01139B681C0A147300F51C
:103DC000D87303EB01139B681C0C547300F5D87374
:103DD00003EB01139B681B0E937300F5D87303EB81
:103DE0000113DB68D37300F5D87303EB0113DB68B1
:103DF0001C0A147400F5D87303EB0113DB681C0C68
:103E0000547400F5D87303EB0113DB681B0E937435
:103E100021B9C36843F02003C36003E0036943F0A2
:103E20002003036110BD00218171C17101724172D3
:103E30008172C1728170C1700321017102214171CF
:103E400001210180704700002E4800682D49496813
:103E500008442D49084420B12C49084400283DD18C
:103E600026E02848C17A007B01EB002081B2284877
:103E70004278523020F812102248417B807B01EBBF
:103E80000020C0F5FA4081B221484278423020F843
:103E900012101C48407C80000A2190FBF1F0C1B256
:103EA0001B4842783A30815401201A49087016E0C4
:103EB00000200DE013490B310A5C1549497801EBEC
:103EC000410313490A3101EB43010A54411CC8B2B2
:103ED0000628EFDB01201049087000E000BF00BF9A
:103EE0000C48007801280BD10B480078012807D135
:103EF000074981F86200012105484278801C8154FD
:103F000070470000DC0200200CDEFFE7001101FF1B
:103F100050020020820100208301002000B589B0FA
:103F20004FF48070ADF8200048208DF8230008A9D8
:103F3000344800F060FD4FF40070ADF82000182008
:103F40008DF8230008A92F4800F055FD01214FF4FA
:103F5000EA1000F0DBFD2C48FFF7BAFD05A8FFF7DB
:103F600062FF00208DF81A0001208DF81B00002050
:103F70008DF81C008DF81D008DF81E008DF81F00B7
:103F80008DF816008DF8170002208DF8180001201A
:103F90008DF819001820ADF8140005A91A48FFF78C
:103FA00040FE01208DF80E0000208DF80F0001204A
:103FB0008DF810000020ADF80400ADF80600ADF853
:103FC0000800ADF80A00ADF80C0001208DF81100D2
:103FD00001A8FFF799FD012202210B48FFF718FE07
:103FE00014208DF8000003208DF8010000208DF8CA
:103FF000020001208DF80300684601F075F809B051
:1040000000BD0000000C01400064004010B500221B
:104010004FF48051014800F0DEFD10BD000C01405E
:1040200010B500224FF48071014800F0D4FD10BD9E
:104030000010014000F0805111B10349086001E017
:10404000024948607047000004040240000002403A
:1040500021B1026842F00102026004E002684FF6FA
:10406000FE731A400260704701684FF6FE721140FD
:1040700001600021016041608160C1604B4988425C
:1040800008D14A490839496841F00F01474A083ABE
:1040900051608AE045491431884208D143490839C2
:1040A000496841F0F001414A083A51607DE03F49DA
:1040B0002831884208D13D490839496841F4706186
:1040C0003A4A083A516070E038493C31884208D198
:1040D00036490839496841F47041344A083A516018
:1040E00063E032495031884208D130490839496883
:1040F00041F470212D4A083A516056E02B49643151
:10410000884208D129490839496841F47001274A91
:10411000083A516049E025497831884208D123495D
:104120000839496841F07061204A083A51603CE022
:104130001F49884206D1011F096841F00F01021F83
:10414000116032E01A491431884208D11849091F18
:10415000096841F0F001164A121F116025E0144968
:104160002831884208D11249091F096841F4706159
:104170000F4A121F116018E00D493C31884208D1E6
:104180000B49091F096841F47041094A121F116067
:104190000BE007495031884207D10549091F0968DA
:1041A00041F47021024A121F11607047080002405A
:1041B0000804024001460020002201F0805313B1A0
:1041C000054B1A6801E0054B1A6802EA01030BB1BE
:1041D000012000E00020704700040240000002407F
:1041E00010B50022026847F6F0739A430C6A8B6898
:1041F00023430C6923434C6923438C692343CC69D3
:1042000023434C6A23438C6A23431A430260CB68DE
:1042100043600B6883604B68C36010BD704700004B
:1042200008B54FF47040ADF8000010208DF8030081
:1042300003208DF802006946044800F0DCFB4FF4CF
:104240007041024800F0B7FC08BD0000000C0140BE
:1042500008B54FF44070ADF8000010208DF8030051
:1042600003208DF8020069460F4800F0C4FB4FF4AC
:1042700000710D4800F0A1FC4FF480710A4800F075
:104280009AFC0E20ADF8000010208DF803000320EA
:104290008DF802006946054800F0ADFB0E21034889
:1042A00000F089FC08BD000000100140001401402E
:1042B00008B5FF20ADF8000048208DF8030003206A
:1042C0008DF802006946024800F095FB08BD000029
:1042D0000018014000B587B04FF4004000F0C2FF65
:1042E000F320ADF8040000208DF8070001A93F4835
:1042F00000F081FB0320ADF8040000208DF80700DA
:1043000001A93B4800F077FB0120ADF80400002034
:104310008DF8070001A9374800F06DFB3648FFF71C
:10432000D5FA0020029001208DF80C008DF80D00C8
:104330004FF4602004900020059009208DF81800AB
:1043400002A92D48FFF704FB0723012200212A4878
:10435000FFF726FB0723022201212748FFF720FB56
:104360000723032204212448FFF71AFB0723042212
:1043700005212148FFF714FB0723052206211E48CB
:10438000FFF70EFB0723062219461B48FFF708FB21
:1043900007231A4608211848FFF702FB07230822C3
:1043A00009211548FFF7FCFA072309220A211248C0
:1043B000FFF7F6FA01211048FFF771FA01210E48C4
:1043C000FFF778FA0C48FFF747FB00BF0A48FFF7F2
:1043D000B5FA0028FAD10848FFF74EFB00BF06489F
:1043E000FFF7A2FA0028FAD107B000BD000801408B
:1043F000000C0140001001400024014000B58BB0CA
:104400001148FFF731FE20200890092003900F4843
:1044100000900F4801904FF4807006908000079044
:104420000020029004908020059040010990002017
:104430000A9069460448FFF7D3FE01210248FFF7BE
:1044400007FE0BB000BD0000080002404C240140F4
:104450005C03002070B502460C4606210623154673
:1044600002F5806629883388ACB1012C1BD13BB999
:104470004EF6EE60814201D1002070BD0120FCE7C4
:1044800039B94EF6EE60834201D10120F5E70020F4
:10449000F3E7AB20F1E709B90020EEE70BB9012003
:1044A000EBE7AB20E9E70020E7E72DE9F041044620
:1044B0000425264604F58067304600F01DFA0546BF
:1044C000042D02D02846BDE8F0810021304600F0DE
:1044D00053FA0546042D01D02846F4E7384600F08B
:1044E0000BFA05462846EEE72DE9FF5F80460E46AB
:1044F000924606200390062700254FF0000B00206F
:104500000290401E0190C14608F580600090B9F805
:1045100000000390009807880398002878D0A0F541
:104520006E40EE3868B3A0F588501138002870D17D
:104530004FB9484600F0E0F90446042C20D020464C
:1045400004B0BDE8F09F4EF6EE60874210D14846B9
:1045500000F0D2F90446042C01D02046F0E70021F7
:10456000009800F009FA0446042C09D02046E7E739
:104570004046FFF79AFF0446042C01D02046DFE7AF
:10458000B2E087BB002523E0B9F8060036F8151025
:10459000884201D128B201900198854216D036F8A0
:1045A0001510534A404600F021F902900298012864
:1045B0000CD036F815104E480288404600F048F9F5
:1045C0008346BBF1040F01D05846B9E7681C85B299
:1045D0005545D9DB0021484600F0CEF90446042CAD
:1045E00002D02046ACE707E0009800F085F90446C9
:1045F000042C20D02046A3E74FF6FF70874212D14B
:10460000009800F079F90446042C03D0204697E77F
:1046100012E060E00021484600F0AEF90446042CA8
:1046200009D020468CE74046FFF73FFF0446042CA4
:1046300001D0204684E757E03FB94046FFF735FFF9
:104640000446042C46D020467AE74FF6FF70874296
:1046500007D1009800F050F90446042C3AD02046C7
:104660006EE7002523E00098C08836F815108842D0
:1046700001D128B201900198854216D036F8151064
:104680001B4A404600F0B2F80290029801280CD074
:1046900036F8151016480288404600F0D9F88346CF
:1046A000BBF1040F01D058464AE7681C85B2554556
:1046B000D9DB0021009800F05FF90446042C01D0FA
:1046C00020463DE7484600F017F90446042C01D087
:1046D000204635E708E04046FFF7E7FE0446042C95
:1046E00001D020462CE700BF00BF042028E70000CF
:1046F000A00100202DE9F04F85B005460E469346F7
:1047000098460427364804903648039000200290CB
:10471000002481460190AA4605F5806000900021A2
:104720002846FFF797FE02900298012804D1CDF8A1
:1047300010A0009803900AE0029820B90098049015
:10474000CDF80CA003E0AB2005B0BDE8F08F4EF62D
:10475000EE61049800F010F90746042F01D03846A6
:10476000F2E7414628460E9A00F072F88146B9F108
:10477000040F01D04846E7E700241CE036F8140097
:10478000404516D036F81410174A284600F02EF887
:104790000190019801280CD036F8141012480288B4
:1047A000284600F055F88146B9F1040F01D048467B
:1047B000CAE7601C84B25C45E0DB039800F09CF81B
:1047C0000746042F01D03846BEE70021049800F0C8
:1047D000D3F80746042F01D03846B5E73846B3E78B
:1047E000FF03010800000108A00100202DE9F05F8F
:1047F00006460F469046002445F255594FF0010AEF
:10480000124DAB4600213046FFF724FE0446AB2C88
:1048100001D1BDE8F09F06EB842BB11E601C01EBBB
:1048200080250BE0B5F80090B94506D135F8020CAB
:10483000A8F800004FF0000A04E02D1F0BF1020061
:104840008542EFD800BF5046E3E7000000000108B2
:104850002DE9F0470646894617464FF00408002523
:10486000154CDFF858A001213046FFF7F3FD05464F
:10487000AB2D01D1BDE8F08706EB8524B11E681C85
:1048800001EB802A14E02068401C80B9394620469C
:1048900000F072F88046B8F1040F01D04046E9E715
:1048A0004946A01C00F068F880464046E2E7241D17
:1048B0005445E8D38020DDE700000108FF07010828
:1048C0002DE9F8430746884691461C46089D002678
:1048D0002A4621463846FFF7BBFF0646802E07D101
:1048E00023464A46414638460095FFF703FF0646F1
:1048F0003046BDE8F883000030B5044604254FF487
:10490000302000F065F80546042D17D10C480069E9
:1049100040F002000A49086108464461006940F01D
:10492000400008614FF4302000F052F8054604487A
:10493000006941F6FD71084001490861284630BD13
:104940000020024004200B49C96801F0010109B1AF
:1049500001200EE00749C96801F0040109B10220F5
:1049600007E00449C96801F0100109B1032000E023
:10497000042070470020024070B504460D4604260E
:10498000F00200F025F80646042E11D1094800690E
:1049900040F00100074908612580F00200F018F896
:1049A00006460448006941F6FE7108400149086165
:1049B000304670BD00200240024803494860034869
:1049C000486070472301674500200240AB89EFCD66
:1049D00000B502460423FFF7B5FF034603E0FFF7E7
:1049E000B1FF0346521E012B01D1002AF7D102B9B3
:1049F0000523184600BD2DE9F0410246002500269A
:104A0000002000230024002791F803C00CF00F05BC
:104A100091F803C00CF0100CBCF1000F03D091F81A
:104A200002C04CEA050591F800C0BCF1000F31D07E
:104A3000146800202BE04FF0010C0CFA00F3B1F8E1
:104A400000C00CEA03069E4220D183004FF00F0CF9
:104A50000CFA03F7BC4305FA03FC4CEA040491F892
:104A600003C0BCF1280F06D14FF0010C0CFA00FC7A
:104A7000C2F814C00AE091F803C0BCF1480F05D198
:104A80004FF0010C0CFA00FCC2F810C0401C0828C2
:104A9000D1D31460B1F800C0BCF1FF0F34DD54680D
:104AA00000202EE000F1080C4FF0010808FA0CF38A
:104AB000B1F800C00CEA03069E4221D183004FF0FA
:104AC0000F0C0CFA03F7BC4305FA03FC4CEA040490
:104AD00091F803C0BCF1280F05D100F1080C08FAC9
:104AE0000CF8C2F8148091F803C0BCF1480F07D14C
:104AF00000F1080C4FF0010808FA0CF8C2F8108019
:104B0000401C0828CED35460BDE8F081F0B50A46B9
:104B1000002300240021002500F00046B6F1004FDC
:104B200002D11D4EF16901E01B4E7168C0F30345CF
:104B300083B200F44016B6F5401F08D121F0706131
:104B4000154E766826F07066134F7E6012E000F412
:104B50008016B6F5801F06D1032606FA05F4A14398
:104B600041F0706106E0460D360103FA06F6B143E6
:104B700041F0706122B1460D360103FA06F6314369
:104B800000F00046B6F1004F02D1034EF16101E0A2
:104B9000014E7160F0BD00000000014001468868D0
:104BA00080B2704702460020D3680B400BB1012051
:104BB00000E00020704741617047016170478268E2
:104BC0000A408A4203D142690A43426102E0026913
:104BD0000A43026170470AB1016100E04161704718
:104BE000F0B50B46FF24FF2509E010F8016B86EABB
:104BF0000401074E765C86EA0504064E755C1E1EAF
:104C0000A3F10107FBB2F0D114705570F0BD0000A4
:104C1000F0950008F096000810B500218020314A78
:104C200082F82D007F2082F82E00002053E02E4ACB
:104C300032F810202D4B5A432B4B33F81030C3F56C
:104C4000805392FBF3F2274B43F820201A4652F888
:104C50002020274B9A423DD2224A52F82020B2F51A
:104C60007A7F37D91F4A92F82F20521C1D4B83F8A8
:104C70002F20002229E01B4B53F820301D4C54F804
:104C80002240A34220D9A2F129035CB2154B243360
:104C90005C545B56134C94F92D40A34205DD114B37
:104CA00024335B5C0F4C84F82D300E4B24335B5661
:104CB0000C4C94F92E40A34205DA0A4B24335B5C7A
:104CC000084C84F82E3002E0521C882AD3DB00BF47
:104CD0004A1CD1B2401C0928A9DB024880F82F10D9
:104CE00010BD00002C0300205C030020A086010002
:104CF000E0673500009A000800BFFEE74CF6CC40A4
:104D000001490860704700000030004010B500F015
:104D100013F810BD70B505460C4645F2555000F02D
:104D20001FF8284600F010F8204600F013F800F0B5
:104D300003F8FFF7E3FF70BD4AF6AA2001490860B7
:104D40007047000000300040014948607047000093
:104D5000003000400149886070470000003000408A
:104D60000149086070470000003000400021002029
:104D700006E0054A125C0AB14A1CD1B2421CD0B20C
:104D80000828F6DB08467047520200200021002068
:104D900008E0064A125C1AB1012282400A4391B22D
:104DA000421CD0B20828F4DB0846704752020020AB
:104DB00008B501210B48FFF7A9FE4FF40040ADF8FC
:104DC000000010208DF8030003208DF802006946D2
:104DD0000548FFF710FE4FF400410348FFF7EDFED2
:104DE00008BD0000000230000008014008B54FF483
:104DF0007F40ADF8000048208DF8030003208DF8B7
:104E0000020069460148FFF7F6FD08BD00180140A1
:104E100000BFFEE72DE9F04104460025A078C01C44
:104E2000C1B2494A2046FFF7DBFEA078C01C205CD7
:104E30004549283991F82810884208D1A078001DEA
:104E4000215C4148283890F82900814201D0BDE812
:104E5000F0813E48008810B900203D4948703C4828
:104E60004078F8B9E578207900EB05252846FEF76B
:104E700094FB0646374A384BFEF79DFA324A283AE9
:104E8000C2E9040110460022344BD0E904613046E7
:104E9000FEF7F0FB4AD801202C49088000202C495D
:104EA000087043E02A484078012810D1E57820793D
:104EB00000EB05252846FEF770FB0646284A294BDD
:104EC000FEF779FA204A283AC2E906012EE0204886
:104ED0004078022810D1E578207900EB0525284696
:104EE000FEF75BFB06461E4A1E4BFEF764FA164AA7
:104EF000283AC2E9080119E015484078032815D17D
:104F0000E578207900EB0525607900EB0525A0798F
:104F100000EB05252846FEF740FB0646104A114BDC
:104F2000FEF749FA084A283AC2E9020108484078DF
:104F3000401C0749487008464078032801DD0020DE
:104F4000487000BF83E70000180300208E01002096
:104F5000A40000209A9999999999B93F0000694055
:104F60007B14AE47E17A843F1CB51DA103C9CDE98E
:104F700000011D480078FA2807DB02201B49088041
:104F800000201B49087048701CBD174800780A2192
:104F900090FBF1F201FB1200D8B9164A06216846CF
:104FA000FFF71EFE1348283890F828008DF80600F9
:104FB0001048283890F829008DF80700002406E0F2
:104FC0001DF804100C4801F099FC601CC4B2082CB8
:104FD000F6DB05480078401C0349087000BFD3E7A2
:104FE0000103030000010000900100208E01002059
:104FF000A400002018030020004400407FB531A128
:1050000003C9CDE9020131A103C9CDE9000102A81C
:1050100030490978445C304800788DF80000012C54
:1050200009D100208DF8000003208DF80100082030
:105030008DF8030018E0022C03D101208DF8020046
:1050400012E0032C03D100208DF803000CE0042CA7
:1050500003D108208DF8030006E0052C03D11220AF
:105060008DF8030000E07FBD1B4A28320621684608
:10507000FFF7B6FD184890F828008DF8060016488E
:1050800090F829008DF80700144844700020134957
:105090000870002506E01DF80510114801F02EFCEF
:1050A000681CC5B2082DF6DB0A480078401C094987
:1050B000087008460078042801DD0020087000BF51
:1050C000D1E7000001020304050000000004000015
:1050D0000002000091010020F0020020A400002046
:1050E000004400407047000070B5002100230F22EB
:1050F000C47804B3154C246804F4E064C4F5E06497
:10510000210AC1F10403CA40447804FA03F1847807
:105110001440214309010E4C0678A155047804F08F
:105120001F050124AC4005786D11AD0005F1E025A7
:10513000C5F8004109E0047804F01F050124AC40E3
:10514000044D0678761145F8264070BD0CED00E060
:1051500000E400E080E100E002490143024A1160FE
:10516000704700000000FA050CED00E0024A0A401A
:105170000243024B1A60704780FFFF1F08ED00E0FA
:105180000648006800F4E06005490843001D034933
:105190000860BFF34F8F00BFFEE700000CED00E09A
:1051A0000000FA0538B504460020009004F0010024
:1051B0008DF80000C4F340008DF80100C4F38000B6
:1051C0008DF802009DF800204FF400410B48FFF7D6
:1051D00002FD9DF801204FF480410848FFF7FBFCD9
:1051E0009DF802204FF400510448FFF7F4FC01221F
:1051F00011030248FFF7EFFC38BD0000000C01402E
:1052000038B504460020009004F001008DF800003D
:10521000C4F340008DF80100C4F380008DF8020053
:105220009DF8002002210D48FFF7D5FC9DF80120D4
:1052300004210A48FFF7CFFC9DF802200821074807
:10524000FFF7C9FC012211020548FFF7C4FC002248
:105250004FF400710248FFF7BEFC38BD0014014056
:105260000010014001460020034A506820F44040ED
:1052700008435060704700000010024029B1064A00
:1052800052690243044B5A6104E0034A5269824363
:10529000014B5A61704700000010024029B1064AD4
:1052A000D2690243044BDA6104E0034AD2698243C3
:1052B000014BDA61704700000010024029B1064A34
:1052C00012690243044B1A6104E0034A12698243E3
:1052D000014B1A61704700000010024029B1064AD4
:1052E00092690243044B9A6104E0034A9269824343
:1052F000014B9A61704700000010024029B1064A34
:10530000D2680243044BDA6004E0034AD268824365
:10531000014BDA60704700000010024010B5012117
:105320000846FFF7DBFF01210420FFF7D7FF01212B
:105330000820FFF7D3FF01211020FFF7CFFF012145
:105340002020FFF7CBFF01214020FFF7C7FF0121FD
:105350008803FFF7C3FF01214804FFF79FFF0121E6
:105360008804FFF79BFF01210220FFF797FF01212F
:105370000846FFF793FF01214806FFF78FFF012141
:105380004802FFF7ABFF01210846FFF777FF10BD8A
:1053900030B500210022002400232D4D6D6805F05A
:1053A0000C0121B1042905D0082923D105E0294D9C
:1053B000056022E0274D05601FE0254D6D6805F46E
:1053C0007012234D6D6805F48034022505EB92427E
:1053D0001CB9214D554305600BE01D4D6D6805F46A
:1053E00000351DB11C4D5543056002E0194D554374
:1053F000056002E0174D056000BF00BF144D6D68E9
:1054000005F0F0010909154D6B5C0568DD4045604C
:105410000F4D6D6805F4E061090A104D6B5C45683D
:10542000DD4085600A4D6D6805F46051C90A0B4D79
:105430006B5C4568DD40C560054D6D6805F4404115
:10544000890B074D6B5CC568B5FBF3F5056130BD95
:105450000010024000127A0000093D00C601002041
:10546000D601002010B50248FFF798FBC0B210BD6E
:10547000001801401FB5194803C8CDE9020118A161
:1054800003C9CDE900011848407802A931F810009D
:1054900000128DF802001448407811F810008DF8C1
:1054A0000300124A06216846FFF79AFB0F48283886
:1054B00090F828008DF806000C48283890F829004C
:1054C0008DF80700002406E01DF80410084801F0DC
:1054D00015FA601CC4B2082CF6DB1FBDF09700085B
:1054E0000103000000010000A400002018030020B8
:1054F0000044004010B50446082C06DA0448FFF7C3
:105500004DFB204100F0010010BD0220FCE700002F
:105510000018014041F210014FF4C06003F0DEF9C1
:105520000A2001F0DBFCFFF72BFE00004178212967
:1055300006D101211E4A117081781E4A117036E091
:105540004178222908D10121194A51708178194ADC
:105550005170C17891702AE04178232906D1012148
:10556000134A91708178134AD17020E04178242940
:1055700006D101210E4AD17081780E4A117116E0D0
:105580004178252903D10121094A51710FE0417861
:10559000262906D10121064A91718178054A517167
:1055A00005E04178312902D10121014A1172704789
:1055B00020030020920100202DE9F04104462078CC
:1055C000411E204602F062FD05462E0AEFB20E484B
:1055D00080791F2805DD022000F070FE0120BDE863
:1055E000F0812078401E205CB04203D12078205CFE
:1055F000B84204D0012000F061FE0120EFE7204610
:10560000FFF794FF0020EAE798010020002142788C
:10561000AA2A18D18178082900DB70470279C3785B
:1056200002EB032293B2094A22F8113082794379BE
:1056300002EB032293B2054A103A22F81130C279E4
:10564000024B183B5A5400BFE7E70000CC02002091
:105650002DE9F04104462078411E204602F016FD57
:1056600005462E0AEFB22078401E205CB04203D1DE
:105670002078205CB84202D00120BDE8F0812046AD
:10568000FFF7C4FF0020F8E770B505460C46012C73
:1056900005D1012229460548FFF79DFA05E024B906
:1056A000002229460148FFF796FA70BD000C014020
:1056B00008B57820ADF8000010208DF80300032015
:1056C0008DF8020069460448FFF795F978210248F1
:1056D000FFF771FA08BD0000000C014010B500F0A2
:1056E00001F810BD0CB5002001900090334800680F
:1056F00040F480303149086000BF3048006800F451
:10570000003000900198401C0190009818B9019851
:10571000B0F5A06FF1D12948006800F4003010B155
:105720000120009001E0002000900098012843D162
:105730002348006840F010002149086008460068CE
:1057400020F0030008600846006840F0020008608E
:105750001A48406819494860084640684860084649
:10576000406840F4806048600846406820F47C103F
:1057700048600846406840F4E81048600846006801
:1057800040F08070086000BF0C48006800F00070B6
:105790000028F9D00948406820F003000749486014
:1057A0000846406840F00200486000BF0348406877
:1057B00000F00C000828F9D10CBD000000100240D8
:1057C0000020024070B505460E4629461448FFF7F2
:1057D000F4F9682001F05EFB29461148FFF7EBF968
:1057E000682001F057FB012410E004EA060020B114
:1057F00029460B48FFF7E1F903E029460848FFF77F
:10580000DAF9682001F046FB6006040E002CECD1AA
:1058100029460348FFF7D1F9682001F03BFB70BD32
:105820000014014008B55020ADF8000010208DF89C
:10583000030003208DF8020069460948FFF7DBF8F2
:1058400050210748FFF7B7F98020ADF80000042089
:105850008DF8030069460248FFF7CDF808BD000047
:105860000014014010B501210648FEF7FAF800BF08
:105870000220FEF79FFC0028FAD00220FEF7DAFB98
:1058800010BD000000240140042808D14FF0E021A1
:10589000096941F004014FF0E022116107E04FF087
:1058A000E021096921F004014FF0E0221161704705
:1058B00010B503F0F5FB012801D003F077F810BD17
:1058C00010B51348006840F001001149086008460F
:1058D0004068104908400E494860084600680E4973
:1058E00008400B4908600846006820F480200860E2
:1058F0000846406820F4FE0048604FF41F008860AE
:10590000FFF7ECFE4FF000600449086010BD000096
:10591000001002400000FFF8FFFFF6FE08ED00E077
:1059200010B50121880700F0C8F8B0B1012188073F
:1059300000F0B4F8094800780A2809DD002007497A
:105940000870FEF76DFB00214FF0804000F0A9F8D1
:1059500002480078401C0149087010BD8C010020ED
:105960007FB505460C46ADF80850ADF80440002060
:10597000ADF80A00ADF8060001A94FF0804000F034
:10598000C5F801221146900700F0A8F800214FF059
:10599000804000F086F81C208DF8000004208DF86F
:1059A000010000208DF8020001208DF803006846F8
:1059B000FFF79AFB7FBD000010B501211C4800F0E5
:1059C0007CF8002833D00121194800F067F8194805
:1059D0000088401C1749088008468088401C888041
:1059E0000846C088401CC88013480079F8B10846B2
:1059F0008078401C8870084680780F49097901EB4F
:105A00008101B0EB410F12DD012080F3108800BF4F
:105A100000BF0A48006800F4E06009490843001D1F
:105A200006490860BFF34F8F00BF00BFFEE710BDFF
:105A30000004004084010020200300200CED00E061
:105A40000000FA057FB505460C46ADF80850ADF8E4
:105A500004400020ADF80A00ADF8060001A90E4888
:105A600000F054F8012211460B4800F037F81D20D1
:105A70008DF8000004208DF8010000208DF8020050
:105A800001208DF803006846FFF72EFB0121024834
:105A900000F007F87FBD000000040040CA43028206
:105AA000704721B1028842F00102028004E00288BE
:105AB0004FF6FE731A400280704730B50246002050
:105AC00000230024158A05EA0103958905EA0104EB
:105AD00013B10CB1012000E0002030BD1AB1838960
:105AE0000B43838102E083898B438381704710B528
:105AF00041F61F4140F2E730FFF7A4FF41F61F4196
:105B000040F2F310FFF72CFF10BD000000220288C6
:105B10001D4B98420ED01D4B98420BD0B0F1804FD8
:105B200008D01B4B984205D01A4B984202D01A4B12
:105B3000984204D14FF68F731A404B881A43174B83
:105B4000984207D0164B984204D04FF6FF431A40B4
:105B5000CB881A4302808B8883850B8803850A4B88
:105B600098420BD0094B984208D00E4B984205D072
:105B70000D4B984202D00D4B984201D10B7A03860F
:105B80000123838270470000002C01400034014053
:105B90000004004000080040000C004000100040DD
:105BA0000014004000400140004401400048014012
:105BB00010B5FEF78FFBFEF721FCFFF753FE10BD7B
:105BC00010B540F22551064800F057F830B10448AE
:105BD00000F00EF9C4B2204600F09EFC10BD00009B
:105BE0000038014010B5002440F225510B4800F068
:105BF00044F888B1094800F0FBF8C4B208480088AE
:105C000018B107480088012803D1204600F0DEFCC7
:105C100002E0204600F02CFD10BD000000440040D2
:105C20008E01002010B5002440F22551054800F0F7
:105C300024F830B1034800F0DBF8C4B2204600F08D
:105C40000DFE10BD0048004021B1828942F400528F
:105C5000828104E082894DF6FF731A408281704789
:105C600002460020B1F5007F00D100BF13880B4031
:105C70000BB1012000E00020704770B502460024FF
:105C800000230025002040F66A16B14200D100BF73
:105C9000C1F3421501F01F03012606FA03F3012D9B
:105CA00002D19689334006E0022D02D1168A334094
:105CB00001E0968A33400C12012606FA04F4168895
:105CC000344013B10CB1012000E0002070BDF0B5EC
:105CD0000346002400260025002040F66A17B9423A
:105CE00000D100BF1846C1F3421401F01F0601277E
:105CF00007FA06F5012C01D10C3004E0022C01D189
:105D0000103000E014301AB107682F43076002E03A
:105D10000768AF430760F0BD2DE9F04786B0054640
:105D20000E460024A24600BFA1460027B08900B15C
:105D300000BF2F462C8A4CF6FF700440F0880443C5
:105D40002C82AC894EF6F3100440B08831890843A8
:105D5000718908430443AC81AC8A4FF6FF4004408C
:105D6000B0890443AC8201A8FFF712FB1F488742A9
:105D700002D1DDF810A001E0DDF80CA0A88900F444
:105D8000004040B10AEBCA0000EB0A10316849003C
:105D9000B0FBF1F807E00AEBCA0000EB0A1031682B
:105DA0008900B0FBF1F86420B8FBF0F00401200991
:105DB000642101FB1089A88900F4004040B1322021
:105DC00000EBC900B0FBF1F000F00700044308E06D
:105DD000322000EB09106421B0FBF1F000F00F005D
:105DE00004432C8106B0BDE8F08700000038014074
:105DF00001468888C0F308007047C1F3080282801A
:105E00007047000010B5044A00210448FDF793FFD5
:105E1000FEF71AF810BD0000DC020020006400400C
:105E200000B587B04FF40070ADF8180003208DF86E
:105E30001A0018208DF81B0006A91D48FEF7DBFD8F
:105E40004FF48060ADF8180048208DF81B0006A9BB
:105E50001748FEF7D0FD25208DF8040000208DF8AE
:105E600005008DF8060001208DF8070001A8FFF756
:105E70003BF91048806E02900020ADF80C00ADF8A0
:105E80000E00ADF81000ADF814000C20ADF81200B3
:105E900002A90948FFF740FF012240F225510648B8
:105EA000FFF715FF01210448FFF7CEFE07B000BD44
:105EB00000080140380000200038014000B587B0DC
:105EC0000420ADF8180003208DF81A0018208DF872
:105ED0001B0006A91F48FEF78EFD0820ADF818002C
:105EE00048208DF81B0006A91A48FEF784FD2620DD
:105EF0008DF8040005208DF8050000208DF80600BF
:105F000001208DF8070001A8FFF7EEF81248806E17
:105F100002904FF48050ADF80C000020ADF80E0058
:105F20004FF48060ADF810000020ADF814000C2094
:105F3000ADF8120002A90948FFF7EEFE012240F277
:105F400025510648FFF7C3FE01210448FFF77CFEF8
:105F500007B000BD00080140A4000020004400403C
:105F600000B587B04FF48060ADF8180003208DF8BD
:105F70001A0018208DF81B0006A91E48FEF73BFDED
:105F80004FF40060ADF8180048208DF81B0006A9FA
:105F90001848FEF730FD27208DF8040001208DF809
:105FA000050000208DF8060001208DF8070001A8EB
:105FB000FFF79AF81048806E02900020ADF80C00B0
:105FC000ADF80E00ADF81000ADF814000C20ADF8DF
:105FD000120002A90948FFF79FFE012240F2255155
:105FE0000648FFF774FE01210448FFF72DFE07B0B5
:105FF00000BD0000000C01401001002000480040DE
:106000002DE9FC41044605208DF8000021208DF883
:1060100001008DF802402046FFF76CFA8DF803006E
:106020009DF80000411E684602F030F805462E0A31
:10603000EFB29DF80000401E0DF800609DF80000D2
:106040000DF80070684600F007F92046FFF752FA95
:1060500030B92046FFF7D4F801218807FFF721FD6A
:10606000BDE8FC812DE9FF4104460E46174903C9EE
:10607000CDE900011DF814003146FFF705FB0520AE
:106080008DF8080022208DF809008DF80A403DF8AF
:1060900014100F48FEF786FD8DF80B009DF80800E0
:1060A000411E02A801F0F2FF05462F0A05F0FF0885
:1060B0009DF80800401E02A90F549DF8080001F841
:1060C000008002A800F0C8F8BDE8FF81F899000838
:1060D000000C01402DE9FC41044604208DF800002D
:1060E00024208DF801008DF802409DF80000411E2B
:1060F000684601F0CBFF05462E0AEFB29DF800007E
:10610000401E0DF800609DF800000DF80070684614
:1061100000F0A2F814B10548047105E0012080F3F5
:10612000108800BFFFF72CF8BDE8FC812003002099
:106130002DE9FC41044604208DF8000026208DF84E
:1061400001008DF802409DF80000411E684601F0F4
:106150009DFF05462E0AEFB29DF80000401E0DF887
:1061600000609DF800000DF80070684600F074F8BB
:10617000204600F0D5FBBDE8FC8100007CB5062080
:106180008DF8000025208DF801001148808800124C
:106190008DF802000E4800798DF8030008208DF874
:1061A00004009DF80000411E684601F06FFF0446A0
:1061B000250AE6B29DF80000401E0DF800509DF83B
:1061C00000000DF80060684600F046F87CBD000055
:1061D000980100202DE9FC41044607208DF80000BD
:1061E000AA208DF801008DF802401A48005D90B198
:1061F00018483830005D8DF803001648503030F8EC
:10620000140000128DF804001248503010F81400E9
:106210008DF8050007E064208DF8030000208DF85C
:1062200004008DF805009DF80000411E684601F04D
:106230002DFF05462E0AEFB29DF80000401E0DF816
:1062400000609DF800000DF80070684600F020F82E
:10625000BDE8FC815202002070B5044640210A4886
:1062600000F04CFB09488179074800F047FB002506
:1062700005E0615D044800F041FB681CC5B2207870
:10628000401CA842F5DC70BD003801409801002098
:1062900070B504464021084800F030FB002505E0B9
:1062A000615D054800F02AFB681CC5B22078401CDF
:1062B000A842F5DC70BD0000004800402DE9FC411B
:1062C000044604208DF8000000208DF801008DF8B0
:1062D00002409DF80000411E684601F0D7FE0546C9
:1062E0002E0AEFB29DF80000401E0DF800609DF8E8
:1062F00000000DF800706846FFF7AEFFBDE8FC81B6
:106300002DE9F0439BB004460D4679A103C9CDE9C0
:1063100000011DF804008DF808000A2D03D1272084
:106320008DF8090004E00B2D02D123208DF809001F
:106330008DF80A403CB900208DF80B006E4880783B
:106340008DF80C00BBE0012C46D16C480078C000F1
:10635000801DC0B28DF808006748008800128DF8D3
:106360000B00654800788DF80C000521002030E016
:10637000624A921C125C52B3002212E000EB400C05
:106380005E4B0A3303EB4C0313F802900B4601F10A
:10639000010C0CF0FF010DF1080C0CF80390531CDC
:1063A000DAB2062AEADB554A3A3212F800C00A4647
:1063B0004B1CD9B202AB03F802C0504A423212F869
:1063C00010C00A464B1CD9B202AB03F802C0421CF3
:1063D000D0B20828CCDB72E0022C30D1484890F8CB
:1063E0002F00001DC0B28DF80800454890F82F001E
:1063F000401E43492431085C8DF80B00002017E053
:106400003F4924310956002908DA3D492431095C05
:1064100041F0800202AB011D5A5407E03849243193
:10642000095C01F07F0202AB011D5A54411CC8B245
:10643000334991F82F10491E8142E1DC3FE0032CE3
:1064400036D13048D0E904211046FDF7E6F8C0B255
:106450008DF80B002B49D1E906211046FDF7DDF838
:10646000C0B28DF80C002748D0E908211046FDF78E
:10647000D4F8000A8DF80D002249D1E90821104610
:10648000FDF7CBF8C0B28DF80E001E48D0E902210E
:106490001046FDF7C2F8000A8DF80F001948D0E940
:1064A00002211046FDF7B9F8C0B28DF8100006E0E1
:1064B000042C04D10A208DF80B008DF80C009DF8F7
:1064C0000800411E02A801F0E1FD0646370A06F069
:1064D000FF089DF80800401E02A90F549DF808000F
:1064E00001F8008002A8FFF7B7FE1BB0BDE8F083FB
:1064F00006000D0A0600000098010020500200204E
:106500002C030020F002002010B5FFF789FCFFF7F4
:10651000D5FCFFF725FD10BD40280ED1274909788D
:1065200059B92749497841B90121244A11700021FC
:10653000244A1170224A11707047204909780029B5
:1065400039D02049097802291BDA1E49097811B986
:106550001D4988710FE01A490A780978491C184BBF
:106560001970991C8854891E8978632903DB0021DE
:10657000124A1170E0E713490978491C114A117059
:1065800019E00F4909780E4A9278914213DC0C49C0
:106590000A780978491C0A4B1970991C8854891E7D
:1065A00009781A469278914205DD01211A46517008
:1065B0000021024A117000BFBEE700007C010020EC
:1065C000380000207D0100209801002010B504460D
:1065D000012C13D12348007880B90120214908708B
:1065E0002149087000202149087008460178007888
:1065F000401C1E4A1070901C445410BD1A4800786C
:1066000018B31A480078032811DA1848017800787E
:10661000401C164A1070901C4454801E00790528B6
:106620001DDB0020104908700E49087017E00F4864
:1066300001780079401D814208DC0C48017800781F
:10664000401C0A4A1070901C445408E00748801C03
:10665000FEF7E0FB0020044908700249087000BF03
:10666000CBE700007F0100207E010020A400002075
:106670002DE9FC5F82467448407800287EDD724830
:1066800001780078401C704A1070901C00F801A03E
:10669000801E0078092871DB6C4A07216A48801C3B
:1066A000FEF79EFA6848407A6849283991F8281020
:1066B00088426ED16448817A6448283890F829006D
:1066C0008142F6D16048407806287CD2DFE800F0AD
:1066D000B2031138628B5C48807848B95A48401D33
:1066E00000F016FC0446FCF765FF5849283908708D
:1066F000A1E05548807855492839097888421ED14B
:106700005148401D00F004FC51490090FCF77AFD0F
:106710000190FCF79BFF064600224E4BFCF7A4FDC0
:106720000446FCF75BFF8346FCF726FF8046002209
:10673000494BFCF7B2FE454A283AC2E902017AE029
:1067400041488078414928390978884220D13E481B
:10675000401D00F0DDFB3E490090FCF753FD019029
:10676000FCF774FF064600223A4BFCF77DFD80469D
:10677000FCF734FF8346FCF7FFFE00E062E00446CE
:106780000022354BFCF789FE304A283AC2E9040161
:1067900051E054E02C4880782C4928390978884207
:1067A00020D12948401D00F0B3FB29490090FCF797
:1067B00029FD0190FCF74AFF80460022254BFCF79B
:1067C00053FD064600E035E0FCF708FF8346FCF782
:1067D000D3FE04460022204BFCF75FFE1B4A283AFA
:1067E000C2E9060127E01848807818492839097855
:1067F00088421ED11448401D00F08AFB14490090C5
:10680000FCF700FD0190FCF721FF80460022114BB0
:10681000FCF72AFD0646FCF7E1FE8346FCF7ACFEDA
:10682000044600220C4BFCF738FE084A283AC2E91D
:10683000080100E000BF00BF0020034948700020AD
:1068400001490870BDE8FC9FA40000201803002047
:106850000000C8420000E03F0000594040280ED12F
:106860002349097859B92349497841B90121204A76
:1068700011700021204A11701E4A117070471C4986
:10688000097891B31C490978A9B91A490A78097895
:10689000491C184B1970991C8854891E89786329E2
:1068A00003DB0021124A1170E8E713490978491CFB
:1068B000114A117019E00F4909780E4A92789142F5
:1068C00013DC0C490A780978491C0A4B1970991C89
:1068D0008854891E09781A469278914205DD012173
:1068E0001A4651700021024A117000BFC6E700002D
:1068F00080010020100100208101002070B50446B5
:106900000D4600BF40212046FFF7AAF90028F9D024
:1069100029462046FFF771FA70BD00BFFEE7000070
:106920007CB5044619A103C9CDE900010A2094FBF6
:10693000F0F09DF803100844C0B28DF803000A205F
:1069400094FBF0F100FB11409DF804100844C0B224
:106950008DF804009DF800009DF8011008449DF892
:10696000021008449DF8031008449DF804100844E0
:10697000C0B28DF80500002505E01DF805101020B7
:10698000FEF720FF6D1C062DF7DB7CBDAA1B023035
:10699000302700000FB4054B10B503A9044A029834
:1069A00000F018F810BC5DF814FB0000F56E00084C
:1069B0003400002002E008C8121F08C1002AFAD1E2
:1069C00070477047002001E001C1121F002AFBD16F
:1069D000704700002DE9FF4F8DB00F460546002699
:1069E00006E025280BD0DDE90F1290476D1C761CC0
:1069F00028780028F5D111B03046BDE8F08F00248A
:106A0000A246A1460122EC4900E0044315F8013FEB
:106A1000203B02FA03F00842F7D128782A2810D048
:106A20006FF02F022878A0F13001092914D80AEB61
:106A30008A0102EB410144F0020400EB010A6D1CE3
:106A4000F0E701CF5FEA000A03D544F40054CAF12D
:106A5000000A44F002046D1C28782E2817D115F87E
:106A6000010F44F004042A280ED06FF02F0228787A
:106A7000A0F1300109290AD809EB890102EB410193
:106A800000EB01096D1CF2E757F8049B6D1C287898
:106A90006C280FD006DC4C2817D068280DD06A2847
:106AA00014D104E0742810D07A280FD10DE044F4FA
:106AB00000140AE044F4801401E044F440146978BE
:106AC000814202D104F580146D1C6D1C2A786E2A57
:106AD0001FD00CDC632A31D004DC002A8BD0582A6A
:106AE00011D1A3E0642A68D0692A0CD165E0732A29
:106AF0002ED004DC6F2A73D0702A04D19BE0752A53
:106B00006FD0782A6ED01046DDE90F129047761CC0
:106B100050E1C4F30250022806D0032809D004280B
:106B200001CF09D0066045E101CFF117C0E900614E
:106B300040E101CF06803DE106703BE117F8040B10
:106B40008DF8000000208DF80100EB46012003E0E5
:106B500057F804BB4FF0FF3061074FF0000102D43B
:106B60000DE008F10101884649450FDA8045F8DB60
:106B70001BF808100029F4D108E008F1010188464B
:106B80008142FADB1BF808100029F6D1DDE90F235A
:106B9000AAEB08008146214600F036F9304400EBAC
:106BA000080604E0DDE90F121BF8010B9047B8F16D
:106BB0000108F7D221464846F7E00A21C4F3025300
:106BC0004FF0000B0891022B04D001CFC117032B0B
:106BD00009D00AE0FF1D27F00707F7E8020108E0E7
:106BE00032E01FE020E000B2C117042B01D140B217
:106BF000C117031E71F1000307DA4FF0000CD0EB50
:106C00000C006CEB01012D2302E0230504D52B239E
:106C10008DF82430012303E0E30701D02023F7E7B8
:106C2000984658E00A2110E010210EE010204FF0A5
:106C3000000B08900CE010214FF0000B44F004040E
:106C40004FF00809089103E008214FF0000B08916C
:106C5000C4F30253022B04D001CF0021032B06D032
:106C600006E0FF1D27F00707F7E8020103E080B206
:106C7000042B00D1C0B24FF0000823072BD5702A97
:106C800007D0DDF820C08CF0100C5CEA0B0C05D0AE
:106C90000EE040238DF82430012308E050EA010380
:106CA00006D030238DF824308DF825200223984615
:106CB000DDF820C08CF0080C5CEA0B0C0BD150EA1C
:106CC000010301D1630706D530238DF824304FF03E
:106CD0000108A9F10109582A04D038A20B9208AA88
:106CE0000A920BE03AA2F9E75B46089AFCF7DAFC55
:106CF0000B9B9B5C0A9A521E0A92137050EA010287
:106D0000F2D10A98ADEB000000F1200B600702D52C
:106D100024F4803401E04FF00109D94502DDA9EBEC
:106D20000B0000E0002000EB0B0141440890AAEBAF
:106D3000010AE00306D4DDE90F232146504600F0A6
:106D400063F806444FF0000908E009A911F80900AA
:106D5000DDE90F12904709F10109761CC145F4DB0A
:106D6000E0030CD5DDE90F232146504600F04CF836
:106D7000064404E0DDE90F1230209047761C0899A4
:106D8000481E08900029F5DC08E00A980A99007866
:106D9000491C0A91DDE90F129047761CBBF10001F6
:106DA000ABF1010BF1DC21465046DDE90F2300F089
:106DB00019F806446D1C1BE60928010030313233F6
:106DC0003435363738396162636465660000000027
:106DD0003031323334353637383941424344454611
:106DE000000000002DE9F041044600251E4617462C
:106DF000880404D405E039462020B0476D1C641E89
:106E0000F9D52846BDE8F0812DE9F041044600257A
:106E10001E469046C80301D5302700E0202788048D
:106E200004D505E041463846B0476D1C641EF9D5CF
:106E30002846BDE8F081000010B50420FEF724FDCF
:106E4000104800681049B0FBF1F0104908700D4877
:106E500000680D49B0FBF1F44FF47A70444301200F
:106E60000B4908804FF0E020006940F002004FF02D
:106E7000E021086108464461006940F001000861B2
:106E800010BD00002000002040420F00C201002081
:106E9000C401002070B5034600224FF0E02675695A
:106EA0000D4E367803FB06F44FF0E026B16910E092
:106EB0004FF0E026B06988420BD0884202D20E1A09
:106EC000324402E02E1A0E4432440146A24200D35C
:106ED00000E0EDE700BF70BDC201002030B5044600
:106EE000002504E04FF47A70FFF7D4FF6D1CA54233
:106EF000F8D330BD00BF054A128802F04002002AD4
:106F0000F9D0C2B2014B1B1D1A80704700480040E7
:106F100008B501460020CB788DF800308B788DF8CD
:106F200001304B788DF802300B788DF803306A46CB
:106F3000106808BD10B5FDF73FFD10220249034857
:106F4000FDF7D2FA044610BDA201002000D00108CE
:106F500018E00D48407830B10B48801CFEF72CFB40
:106F60000020094948700948407830B10748801C22
:106F7000FEF76EFB002005494870FDF7C7FE0A20AA
:106F800001F05EFAE5E70000380000201001002063
:106F900000242DE01748008808B9FDF7E5FF1648E2
:106FA0008088B0F5967F0FDB12480088012802D157
:106FB000FEF760FA05E00F480088022801D1FEF7CD
:106FC0001DF800200C498880322094FBF0F100FB72
:106FD000114008B9FDF720FE601C84B24FF4004157
:106FE0000648FDF7ECFDFDF791FEC82001F028FAF8
:106FF000D0E700008E01002084010020000801403D
:107000001CB5002080F3108800BF4FF440514FF0B2
:107010000060FEF7ABF84FF44070FEF79DF8FFF705
:107020000BFFFCF72EFD134940F20C6000F032FF1D
:107030001048001F8088401C0E49091F88800846A0
:10704000818840F20C6001F049FCFFF797F80A22B2
:10705000114609A0FFF79EFC0E48012100232422BF
:10706000CDE900100CA10F4801F0EAFF01F084FB0C
:1070700000201CBD9C0100200D0AB5B1C7B0B0E6D0
:10708000B1BEBAC5D3B2BCFE3A256420C8EDBCFE81
:10709000256400000000002073746172745F7461E5
:1070A000736B00007D7F000800242EE017494878AC
:1070B000FEF778F8322C04DA144890F862000128C0
:1070C0001ED1FCF7A3FF0020114908701149087078
:1070D000322C05DB00210D484278801C815403E0EE
:1070E00000200A4981F8620008484078401C07499E
:1070F000487008464078082801DB002048700024CA
:10710000601CC4B20A2001F09BF9CFE750020020B6
:1071100082010020830100202DE9F04105460E4642
:107120001C4807681C480068001D00F0CBFF50B9E0
:107130001948006890F82C10012088401749096808
:10714000814316480160681C38B936B1124801689D
:10715000091D134800F0F4FF1AE07C190E4800687E
:107160004460BC4207D20C480168091D0D48006804
:1071700000F0CCFF0CE008480168091D0A480068CF
:1071800000F0C4FF09480068844201D20748046047
:10719000BDE8F081F0010020DC010020F4010020B6
:1071A00080060020E4010020E00100200C02002005
:1071B00010B5044600F0D0FF24480068401C234965
:1071C00008602348006840B9214804600846006808
:1071D00001280DD100F0EEF90AE01E48006838B928
:1071E0001B480068C06AE16A884201D818480460F8
:1071F00019480068401C1849086008460068606427
:1072000094F82C1001208840144909680843134958
:107210000860E16A01EB8101114A02EB8100211D46
:1072200000F08EFF00F0DCFF0A48006868B10848F3
:107230000068C06AE16A884207D24FF0805009496D
:107240000860BFF34F8FBFF36F8F10BDEC010020BC
:10725000DC010020F801002008020020F4010020D9
:10726000B003002004ED00E010B500F075FF1048F9
:107270000068D0B90F4800F039FF0F4800F036FF22
:107280000C480E4908600C480D4908600022102186
:10729000052001F0A5FB064908600846006820B1FA
:1072A00008A10348006801F08FF800F099FF10BDB5
:1072B0002002002094060020A806002018020020CA
:1072C0001C020020546D72510000000070B523E0D4
:1072D00001F0A8FA1348006808B9012000E0002076
:1072E000054602F069F8BDB900F036FF0D48C068E8
:1072F000C468201D00F0E6FE0B480068401E0A49E5
:1073000008600A480068401E0849086000F068FFED
:10731000204600F060F800BF044800680028D7D17C
:1073200070BD00006C060020EC010020E801002088
:1073300070B504460D46206C70B1216CE0680844BD
:10734000E0606168E068884201D32068E060284618
:10735000226CE168FBF732FF70BD2DE9F041044675
:107360000F4615464FF00008A66B206C40B9206808
:1073700060BB606801F05AFF80460020606025E035
:107380007DB93946226CA068FBF718FF216CA06814
:107390000844A060D4E90110884217D32068A06097
:1073A00014E03946226CE068FBF708FF216CE068C6
:1073B000401AE0602168E068884203D2216C60686E
:1073C000401AE060022D01D106B1761E701CA06348
:1073D0004046BDE8F08110B50446206B00F038FF50
:1073E000204600F035FF10BD0146084A12681268B9
:1073F0000AB9012200E000220A600A6822B9034AA1
:107400001268D268106800E000207047180200205F
:1074100030B54FF42053174800F007042CB1C01DBD
:1074200020F00700134C041B1B1B0246124C226069
:107430000024114D6C60D018083820F007000F4C64
:10744000206000240D4D2D686C600C4D2D682C6063
:107450001146441A4C60094C24680C60084D4C6875
:107460002C60084D4C682C604FF00044064D2C6099
:1074700030BD0000BC060020380200204002002081
:1074800048020020440200204C02002000BFFFF709
:107490001DFF064800680128F9D94FF080500449C3
:1074A0000860BFF34F8FBFF36F8FF0E7B00300208A
:1074B00004ED00E02DE9F04106460D4617469846DA
:1074C000069C0DB9246000E02760E6632564012175
:1074D000204601F0A3FB84F850800020A064BDE8A2
:1074E000F08100002DE9F05F82460F4690469B46F2
:1074F0000A9E0C9C4FEA8801A522206BFBF770FEC8
:10750000A8F10100216B01EB800929F0070909F0BE
:10751000070008B9012000E0002028B940F22B3212
:107520001BA120A0FFF736FA002507E0795D04F1E2
:1075300034004155785D00B902E06D1C102DF5D383
:1075400000BF002143200155202E00D31F26E662F4
:10755000E66400202065201D00F0D5FD04F1180030
:1075600000F0D1FD2461C6F12000A061646200201A
:10757000606584F858005A465146484600F078FC49
:1075800020600B9808B10B980460BDE8F09F0000E4
:107590002E2E5C4672656552544F535C7461736B5A
:1075A000732E63004572726F723A25732C25640D39
:1075B0000A00000010B5002407E004EB84010F4A24
:1075C00002EB810000F092FD641C202CF5D30C48E6
:1075D00000F08CFD0B4800F089FD0B4800F086FDA3
:1075E0000A4800F083FD0A4800F080FD044809497C
:1075F000086004480849086010BD0000B00300207E
:107600003006002044060020580600206C060020AA
:1076100080060020E0010020E401002010B50146B2
:10762000164800E0006803688B42FBD302464368BB
:1076300013448B4204D143684C68234443600146A1
:107640000A464B6813440468A34211D10C4C0368EA
:107650002468A34208D04B680468646823444B60E4
:1076600003681B680B6005E0054B1B680B6001E0BD
:1076700003680B60884200D0016010BD3802002012
:10768000400200202DE9F04104460D4616461F46F3
:107690004FF0000865602461B5420CD8F01BA16969
:1076A000884202D34FF0010811E0211D094800680B
:1076B00000F02CFD0BE0BE4204D2BD4202D34FF0DD
:1076C000010804E0211D0448006800F01FFD404649
:1076D000BDE8F0811C0200201802002070B50546AC
:1076E00000F03AFDA86B08B9012400E0002400F086
:1076F00077FD204670BD70B5054600F02DFDA86BE6
:10770000E96B884201D1012400E0002400F068FD0B
:10771000204670BD2DE9F3410D460098846C00278A
:107720002CB940F6CE121AA11EA0FFF733F9A06BB8
:10773000E16B884201D2012000E0002028B940F628
:10774000CF1213A117A0FFF725F9A06BE16B8842B8
:107750001BD294F945602A4669462046FFF7FDFD95
:107760000746701C60B9606A08B9012000E000207B
:1077700050B904F1240001F0C5FD28B1012703E050
:10778000701C40B284F8450000BF3846BDE8FC815B
:107790002E2E5C4672656552544F535C717565754B
:1077A000652E63004572726F723A25732C25640D45
:1077B0000A000000F8B505460F4613480068C06887
:1077C000C468201D00F07EFCE069012818D1A06982
:1077D00041192B463A462046FFF754FF80B100205E
:1077E00003462A4601460090204601F0AFFE0646B9
:1077F0002EB94FF4027205A10AA0FFF7CBF800BF23
:107800002046616A8847F8BD180200202E2E5C468B
:1078100072656552544F535C74696D6572732E6363
:10782000000000004572726F723A25732C25640DBA
:107830000A000000F0B587B070E0039800280CDA69
:1078400004AE2EB940F2E7223AA140A0FFF7A2F819
:10785000D6E90020B168904700BF039800285DDB9F
:10786000059C606908B9012000E0002010B9201DC6
:1078700000F028FC02A800F0C7F8054603980A2883
:107880004AD2DFE800F00905072C2E4506082D2F07
:1078900000BF00BF00BF00BF0498A2698118034663
:1078A0002A462046FFF7EEFEC0B12046616A8847AF
:1078B000E069012812D1002000900498A1694218C3
:1078C00000231946204601F041FE07462FB940F239
:1078D000213218A11DA0FFF75DF800BF1DE000BF19
:1078E0001BE000BF0498A061A06908B1012000E07E
:1078F000002028B94FF44E720EA114A0FFF74AF8E9
:10790000A06941192B462A462046FFF7BBFE04E03A
:10791000204600F09DFC00E000BF00BF00231A4697
:1079200003A90E48006801F095F8002885D107B03A
:10793000F0BD00002E2E5C4672656552544F535CBC
:1079400074696D6572732E63000000004572726F7A
:10795000723A25732C25640D0A00000020020020D5
:10796000F8B505460C4600F05DFF684600F04CF89F
:107970000646009820BB44B9B54206D801F01CFD6C
:1079800031462846FFF716FF1CE03CB10E48006860
:10799000006808B9012000E000200446A91B224627
:1079A0000A48006800F026FD01F006FD50B94FF0CE
:1079B000805007490860BFF34F8FBFF36F8F01E01E
:1079C00001F0FAFCF8BD00001C020020200200209B
:1079D00004ED00E00A490968096809B9012100E0DD
:1079E000002121B14FF0FF31064A116006E0044941
:1079F0000968C968C868034A416811607047000097
:107A0000E00100200C02002070B5044601F058FB94
:107A1000054607480068854204D200F00BF80120B3
:107A2000206001E00020206001480560284670BD0C
:107A3000280200202DE9F8432DE021480068C068A5
:107A400005681F480068C068C468201D00F03AFB44
:107A50002046616A8847E06901281CD1A06946195F
:107A6000AE4207D966602461211D1548006800F008
:107A70004DFB10E0002003462A46014600902046B8
:107A800001F064FD07462FB940F292320DA113A018
:107A9000FEF780FF00BF0A480068006808B90120AF
:107AA00000E000200028C8D00548D0F800800F482A
:107AB0000068034908600D48C0F80080BDE8F883FD
:107AC000180200202E2E5C4672656552544F535C9E
:107AD00074696D6572732E63000000004572726FE9
:107AE000723A25732C25640D0A0000001C02002048
:107AF0000B480068401C08B9012000E0002020B9B4
:107B0000F42208A112A0FEF745FF00BF502080F329
:107B10001188BFF34F8FBFF36F8F00BF00BFFEE729
:107B20002C0200202E2E5C4672656552544F535C29
:107B3000706F727461626C655C525644535C415262
:107B40004D5F434D335C706F72742E630000000014
:107B50004572726F723A25732C25640D0A0000007D
:107B600008B500BF6846FFF73FFC04462046009971
:107B7000FFF7F6FEFFF75EFEF4E770B5044600F08F
:107B8000EBFA94F945501AE0A06C38B10021204678
:107B9000FFF7C0FD88B100F013FD0EE0606A08B980
:107BA000012000E0002038B904F1240001F0AAFB14
:107BB00018B100F005FD00E003E0681E45B2002D9D
:107BC000E2DC00BFFF2084F8450000F009FB00F074
:107BD000C3FA94F9445010E0206908B9012000E08C
:107BE000002048B904F1100001F08CFB08B100F04E
:107BF000E7FC681E45B200E001E0002DECDC00BFB0
:107C0000FF2084F8440000F0EBFA70BD002400254A
:107C100000270026A04665E0FDF724FC3249887065
:107C20000846807831490978884201D0002501272B
:107C300047B1681CC5B2052D04DB0A210020FEF700
:107C40005FFB00272848807828490870FDF78EF8E8
:107C500027490870FDF79AF82349088008460088EC
:107C600024490988884202D000264FF00108B8F163
:107C7000000F09D0701CC6B2052E05DB0A210120B9
:107C8000FEF73EFB4FF000081748008819490880AE
:107C90001948C088B0F5167F1FDB601CC4B21F2CCA
:107CA00004D10A210220FEF72BFB10E03D2C04D169
:107CB0000A210320FEF724FB09E00A2094FBF0F1DF
:107CC00000FB114018B90A210120FEF719FB3D2CD9
:107CD00000DB002400200849C880FDF717F80A20BF
:107CE00000F0AEFB98E70000980100201C00002087
:107CF000500200201E000020840100202DE9F041E8
:107D000004464FF0000800F08DFD3E48006808B9B9
:107D1000FFF77EFB3C480068204000285FD1A4B1FB
:107D2000083404F0070080B104F00700C0F1080037
:107D3000044404F0070008B9012000E0002020B945
:107D4000BF2232A13BA0FEF725FE002C47D03D48C4
:107D50000068844243D83C4E3046056801E02E4618
:107D60002D686868A04202D228680028F7D125480B
:107D70000068854233D0306800F108082868306018
:107D80006868001B102813D92F1907F0070008B9DD
:107D9000012000E0002020B9EC221CA125A0FEF764
:107DA000F9FD6868001B78606C603846FFF736FCA8
:107DB000244968680968081A22490860084600686A
:107DC00022490968884203D21E4800681F4908609A
:107DD0000D4968680968084368600020286001F060
:107DE000EBFA08F0070008B9012000E0002028B9EC
:107DF0004FF4967205A10FA0FEF7CCFD4046BDE8FA
:107E0000F0810000400200204C0200202E2E5C4633
:107E100072656552544F535C706F727461626C6529
:107E20005C4D656D4D616E675C686561705F342E99
:107E3000630000004572726F723A25732C25640D41
:107E40000A000000440200203802002048020020FE
:107E50000648006830B10549096801F15000096D14
:107E6000491C01600148006870470000DC010020E7
:107E7000001F4FF080730360001F21F001030360B7
:107E8000001F034B03601438026020387047000065
:107E9000F17A000870B504460D46B4F5C06F08DBF2
:107EA000B4F5C26F05DA2A4621460348FCF79EFC6A
:107EB00070BD0620FCE7000000D0010848E025481E
:107EC000407920B1FEF75AF9002022494871214833
:107ED000007830B120490878FEF792F800201D495B
:107EE00008701C48407838B11B4A91785078FEF7EA
:107EF000B9F80020174948701648C07830B11649C3
:107F00000879FEF7E7F800201249C8701148807917
:107F100030B111494879FEF70BF900200D498871FD
:107F20000C48807838B10C49C8780B21FEF7E8F985
:107F30000020084988700748007A20B1FDF7EAFA66
:107F4000002004498870FCF7E1FE0A2000F078FA6E
:107F5000B5E70000200300209201002000240BE080
:107F60002046FEF737F9601CC4B2082C00DB002461
:107F70004FF4FA7000F064FAF2E700001CB5044612
:107F800000F0EAF82048052100232C22CDE900105A
:107F90001EA1214801F054F8204801210023342279
:107FA000CDE900101EA1214801F04AF82048052122
:107FB00000236C22CDE900101EA1224801F040F8F8
:107FC0002148032100236C22CDE900101FA1234882
:107FD00001F036F82248022100233022CDE90010BA
:107FE00020A1244801F02CF823480221002330224C
:107FF000CDE9001021A1244801F022F8002000F072
:1080000059FA00F0EDF81CBD08000020696F745F9C
:108010007461736B00000000516F000804000020C1
:108020006C65645F7461736B00000000916F000801
:108030000C0000207265706C79636D645F7461730D
:108040006B000000BD7E0008100000207075736892
:1080500073746174655F7461736B00000D7C00085C
:1080600014000020706F6C6C6261745F7461736BDC
:1080700000000000A970000818000020736C6176F1
:10808000655F7461736B00005D7F000870B5024628
:108090000C46FF25FF2309E012F8010B80EA0301DB
:1080A0000648405C80EA05030548455C201EA4F1B3
:1080B0000104F1D143EA052070BD0000F8970008E3
:1080C000F898000801460A69D1E901309860D1E9C1
:1080D000010358605068884201D1886850600020D0
:1080E00008611068401E10601068704700F10801B8
:1080F00041604FF0FF31816000F10801C160016112
:1081000000210160704700210161704710B50246EF
:108110000B685C1C0CB9106907E002F1080000E074
:108120004068446824689C42FAD944684C604C68B2
:10813000A160886041600A611468641C146010BD0D
:1081400042684A6093688B609368596091600861E7
:1081500003685B1C0360704710B500BF502080F3BC
:108160001188BFF34F8FBFF36F8F00BF0B480068BC
:10817000401C0A4908600846006801280DD10848DB
:108180000068C0B208B9012000E0002028B94FF40F
:10819000BD7204A10EA0FEF7FDFB10BD2C02002055
:1081A00004ED00E02E2E5C4672656552544F535C20
:1081B000706F727461626C655C525644535C4152DC
:1081C0004D5F434D335C706F72742E63000000008E
:1081D0004572726F723A25732C25640D0A000000F7
:1081E00010B50B48006828B940F2811209A114A00B
:1081F000FEF7D0FB06480068401E054908600846A7
:10820000006820B9002080F3118800BF00BF10BDB6
:108210002C0200202E2E5C4672656552544F535C32
:10822000706F727461626C655C525644535C41526B
:108230004D5F434D335C706F72742E63000000001D
:108240004572726F723A25732C25640D0A00000086
:1082500070B506463546002E35D0083D2C461A49E5
:1082600060680968084008B1012000E0002028B9D2
:108270004FF4A07215A11FA0FEF78CFB206808B96F
:10828000012000E0002028B940F241120FA119A0FE
:10829000FEF780FB0C4960680968084098B12068C7
:1082A00088B90949606809688843606000F0BAFAD3
:1082B0001449606809680844124908602046FFF7BD
:1082C000ADF901F079F870BD4C0200202E2E5C460D
:1082D00072656552544F535C706F727461626C6565
:1082E0005C4D656D4D616E675C686561705F342ED5
:1082F000630000004572726F723A25732C25640D7D
:108300000A00000044020020064800684FF47A7119
:10831000B0FBF1F0401E4FF0E021486107200861FA
:10832000704700002000002070B5FAF731FF0546C5
:10833000102D11D305F1E02090F8F043104800789B
:10834000844201DB012000E0002028B94FF42A72AA
:108350000CA117A0FEF71EFB1948006800F4E060AE
:1083600018490968884201D8012000E0002028B996
:108370004FF42E7203A10EA0FEF70CFB70BD00009F
:10838000300200202E2E5C4672656552544F535CBD
:10839000706F727461626C655C525644535C4152FA
:1083A0004D5F434D335C706F72742E6300000000AC
:1083B0004572726F723A25732C25640D0A00000015
:1083C0000CED00E034020020024600200BE0084BD8
:1083D00053F8303033B9064B43F8301003EBC00389
:1083E0005A6002E0401C0828F1D300BF704700002B
:1083F000700300202DE9F04105460E4617462C4635
:10840000FFF7AAFE94F94400401C10B9002084F83C
:10841000440094F94500401C10B9002084F8450040
:10842000FFF7DEFEA06B28B93A46314604F124007E
:1084300000F0F6F82046FFF7A0FBBDE8F081000051
:1084400070B504460025ACB10F48006808B901209A
:1084500000E0002028B940F2CF420CA110A0FEF7A6
:1084600099FA00F0DFF900212046FEF755FE00F0F2
:10847000A3FF05463DB94FF080500D490860BFF39A
:108480004F8FBFF36F8F70BD140200202E2E5C46FD
:1084900072656552544F535C7461736B732E630045
:1084A0004572726F723A25732C25640D0A00000024
:1084B00004ED00E070B50546FFF74EFE15B92D48F6
:1084C000006800E028460446201DFFF7FBFD78B950
:1084D000E06A00EB8000284951F8200040B994F888
:1084E0002C100120884025490968814323480160F8
:1084F000A06A18B104F11800FFF7E4FD20480068F5
:10850000401C1F4908601B480068844209D1211D96
:108510001C48FFF715FE1C480068401C1A490860FB
:1085200009E01A480068401E184908602046FEF716
:1085300052FFFFF74FFAFFF753FE15480068C0B12E
:108540000C480068844214D11248006808B9012020
:1085500000E0002028B940F265420FA113A0FEF709
:1085600019FA4FF0805015490860BFF34F8FBFF3E1
:108570006F8F70BDDC010020B0030020F4010020EB
:10858000080200206C060020E8010020EC01002019
:10859000F8010020140200202E2E5C467265655200
:1085A000544F535C7461736B732E63004572726F2A
:1085B000723A25732C25640D0A00000004ED00E0DA
:1085C00001200149086070470002002070B5044690
:1085D0000D462CB940F6063207A10CA0FEF7DAF9D9
:1085E0000E48016818312046FFF790FD012128460A
:1085F000FEF792FD70BD00002E2E5C46726565523E
:10860000544F535C7461736B732E63004572726FC9
:10861000723A25732C25640D0A000000DC0100204D
:1086200070B505460E4614462DB940F6313209A103
:108630000DA0FEF7AFF91048016818312846FFF782
:108640007FFD0CB14FF0FF3621463046FEF764FD4A
:1086500070BD00002E2E5C4672656552544F535C0F
:108660007461736B732E63004572726F723A257377
:108670002C25640D0A000000DC01002070B50546C1
:108680002C46002D4BD02649E06A0968C96A884209
:1086900045D2A06900F0004028B921480068C06AAE
:1086A000C0F12000A061E16A01EB81011D4A02EBEB
:1086B00081016069884201D1012000E0002050B3AF
:1086C000201DFFF7FFFC78B9E06A00EB8000154938
:1086D00051F8200040B994F82C100120884012492C
:1086E00009688143104801600D480068C06AE06273
:1086F00094F82C10012088400B49096808430A4966
:108700000860E16A01EB8101064A02EB8100211D4C
:10871000FFF716FD03E002480068C06AE06270BD22
:10872000DC010020B0030020F401002010B5044655
:108730002CB940F6C13205A109A0FEF72BF90C486F
:10874000006820600B480068606010BD2E2E5C46FB
:1087500072656552544F535C7461736B732E630082
:108760004572726F723A25732C25640D0A00000061
:1087700004020020F00100201CB51A4800210B461D
:108780008222CDE9001018A1194800F059FC0446D6
:10879000012C02D100F0A0FE0446012C15D100BF2F
:1087A000502080F31188BFF34F8FBFF36F8F00BF4E
:1087B0004FF0FF300F49086001200F49086000208A
:1087C0000E49086000F0A2F80BE0601C08B101201F
:1087D00000E0002028B940F2847209A10DA0FEF744
:1087E000D9F81CBD1002002049444C45000000008F
:1087F0008D7400080C020020F8010020F001002018
:108800002E2E5C4672656552544F535C7461736BD7
:10881000732E63004572726F723A25732C25640DB6
:108820000A00000002480068401C014908607047C7
:108830001402002010B51B48006818B101201A4925
:1088400008602DE000201849086018480068B0FA58
:1088500080F0C0F11F0404EB8400154951F820009A
:1088600008B1012000E0002028B940F6F62211A14D
:1088700015A0FEF78FF804EB84010D4A02EB81008E
:1088800041684968416000F1080142688A4202D1AA
:108890004168496841604168C9680F4A116000BF7A
:1088A00010BD00001402002000020020F40100208E
:1088B000B00300202E2E5C4672656552544F535C07
:1088C0007461736B732E63004572726F723A257315
:1088D0002C25640D0A000000DC01002038B5044698
:1088E0000D46B4F5C06F0ADBB4F5C26F07DA234654
:1088F0001022044904480095FBF7E2FF38BD06202A
:10890000FCE70000A201002000D001081CB52248AD
:10891000014609780191FF2102461170014609784C
:1089200000919DF8001001F050011C4A11700721C0
:108930001B4A116009E01A490968491E184A11606A
:108940009DF800104906090E00919DF8001001F0F5
:1089500080018029EFD0124909680902104A11608C
:108960001146098801F4E06111600B4A0199117008
:108970000C48006840F470000A4908600846006826
:1089800040F070400860FFF7BFFC00200649086017
:10899000FAF7C8FB00201CBD00E400E03002002014
:1089A0003402002020ED00E02C02002010B500BFB2
:1089B000502080F31188BFF34F8FBFF36F8F00BF3C
:1089C00000F084FB18B14FF080500449086000BFEC
:1089D000002080F3118800BF10BD000004ED00E00E
:1089E0002DE9F84305460E4690460DB1012000E002
:1089F000002028B94FF4C4720DA112A0FDF7CAFFE0
:108A00000EB9002701E005FB06F707F15400FFF758
:108A100075F9044644B104F1540943464A463146C7
:108A200028460094FEF746FD2046BDE8F883000086
:108A30002E2E5C4672656552544F535C7175657598
:108A4000652E63004572726F723A25732C25640D92
:108A50000A0000002DE9FF4782B005460E461F467A
:108A60004FF0000A2C462CB940F2DC4261A166A00E
:108A7000FDF790FF0EB9206C08B9012000E000203E
:108A800028B940F2DD425BA15FA0FDF783FF00F053
:108A900007FB08B9049808B9012000E0002028B9B4
:108AA0004FF49C6253A158A0FDF774FF00BFFFF77D
:108AB00053FBD4F83890B9F1000F3DD0D4F80C80B6
:108AC00031462046FEF734FCDFB9A9F10100A0636E
:108AD000206810B9FFF7BCF96060206908B901206F
